{
  "address": "0x1148C09A9Df91d59AbbE5D1F290f12f899814BEf",
  "abi": [
    {
      "inputs": [
        {
          "internalType": "string",
          "name": "name_",
          "type": "string"
        },
        {
          "internalType": "string",
          "name": "symbol_",
          "type": "string"
        },
        {
          "internalType": "uint256",
          "name": "initialSupply",
          "type": "uint256"
        }
      ],
      "stateMutability": "nonpayable",
      "type": "constructor"
    },
    {
      "inputs": [
        {
          "internalType": "address",
          "name": "spender",
          "type": "address"
        },
        {
          "internalType": "uint256",
          "name": "allowance",
          "type": "uint256"
        },
        {
          "internalType": "uint256",
          "name": "needed",
          "type": "uint256"
        }
      ],
      "name": "ERC20InsufficientAllowance",
      "type": "error"
    },
    {
      "inputs": [
        {
          "internalType": "address",
          "name": "sender",
          "type": "address"
        },
        {
          "internalType": "uint256",
          "name": "balance",
          "type": "uint256"
        },
        {
          "internalType": "uint256",
          "name": "needed",
          "type": "uint256"
        }
      ],
      "name": "ERC20InsufficientBalance",
      "type": "error"
    },
    {
      "inputs": [
        {
          "internalType": "address",
          "name": "approver",
          "type": "address"
        }
      ],
      "name": "ERC20InvalidApprover",
      "type": "error"
    },
    {
      "inputs": [
        {
          "internalType": "address",
          "name": "receiver",
          "type": "address"
        }
      ],
      "name": "ERC20InvalidReceiver",
      "type": "error"
    },
    {
      "inputs": [
        {
          "internalType": "address",
          "name": "sender",
          "type": "address"
        }
      ],
      "name": "ERC20InvalidSender",
      "type": "error"
    },
    {
      "inputs": [
        {
          "internalType": "address",
          "name": "spender",
          "type": "address"
        }
      ],
      "name": "ERC20InvalidSpender",
      "type": "error"
    },
    {
      "inputs": [
        {
          "internalType": "address",
          "name": "owner",
          "type": "address"
        }
      ],
      "name": "OwnableInvalidOwner",
      "type": "error"
    },
    {
      "inputs": [
        {
          "internalType": "address",
          "name": "account",
          "type": "address"
        }
      ],
      "name": "OwnableUnauthorizedAccount",
      "type": "error"
    },
    {
      "anonymous": false,
      "inputs": [
        {
          "indexed": true,
          "internalType": "address",
          "name": "owner",
          "type": "address"
        },
        {
          "indexed": true,
          "internalType": "address",
          "name": "spender",
          "type": "address"
        },
        {
          "indexed": false,
          "internalType": "uint256",
          "name": "value",
          "type": "uint256"
        }
      ],
      "name": "Approval",
      "type": "event"
    },
    {
      "anonymous": false,
      "inputs": [
        {
          "indexed": true,
          "internalType": "address",
          "name": "previousOwner",
          "type": "address"
        },
        {
          "indexed": true,
          "internalType": "address",
          "name": "newOwner",
          "type": "address"
        }
      ],
      "name": "OwnershipTransferred",
      "type": "event"
    },
    {
      "anonymous": false,
      "inputs": [
        {
          "indexed": true,
          "internalType": "address",
          "name": "from",
          "type": "address"
        },
        {
          "indexed": true,
          "internalType": "address",
          "name": "to",
          "type": "address"
        },
        {
          "indexed": false,
          "internalType": "uint256",
          "name": "value",
          "type": "uint256"
        }
      ],
      "name": "Transfer",
      "type": "event"
    },
    {
      "anonymous": false,
      "inputs": [
        {
          "indexed": false,
          "internalType": "address",
          "name": "account1",
          "type": "address"
        },
        {
          "indexed": false,
          "internalType": "address",
          "name": "account2",
          "type": "address"
        },
        {
          "indexed": false,
          "internalType": "uint256",
          "name": "amount1",
          "type": "uint256"
        },
        {
          "indexed": false,
          "internalType": "uint256",
          "name": "amount2",
          "type": "uint256"
        }
      ],
      "name": "recalculatePaid",
      "type": "event"
    },
    {
      "anonymous": false,
      "inputs": [
        {
          "indexed": false,
          "internalType": "uint256",
          "name": "amount",
          "type": "uint256"
        },
        {
          "indexed": false,
          "internalType": "uint256",
          "name": "totalSent",
          "type": "uint256"
        }
      ],
      "name": "receivedEvent",
      "type": "event"
    },
    {
      "anonymous": false,
      "inputs": [
        {
          "indexed": false,
          "internalType": "address",
          "name": "account",
          "type": "address"
        },
        {
          "indexed": false,
          "internalType": "uint256",
          "name": "amount",
          "type": "uint256"
        }
      ],
      "name": "withdrawEvent",
      "type": "event"
    },
    {
      "inputs": [
        {
          "internalType": "address",
          "name": "owner",
          "type": "address"
        },
        {
          "internalType": "address",
          "name": "spender",
          "type": "address"
        }
      ],
      "name": "allowance",
      "outputs": [
        {
          "internalType": "uint256",
          "name": "",
          "type": "uint256"
        }
      ],
      "stateMutability": "view",
      "type": "function"
    },
    {
      "inputs": [
        {
          "internalType": "address",
          "name": "spender",
          "type": "address"
        },
        {
          "internalType": "uint256",
          "name": "value",
          "type": "uint256"
        }
      ],
      "name": "approve",
      "outputs": [
        {
          "internalType": "bool",
          "name": "",
          "type": "bool"
        }
      ],
      "stateMutability": "nonpayable",
      "type": "function"
    },
    {
      "inputs": [
        {
          "internalType": "address",
          "name": "account",
          "type": "address"
        }
      ],
      "name": "balanceOf",
      "outputs": [
        {
          "internalType": "uint256",
          "name": "",
          "type": "uint256"
        }
      ],
      "stateMutability": "view",
      "type": "function"
    },
    {
      "inputs": [],
      "name": "decimals",
      "outputs": [
        {
          "internalType": "uint8",
          "name": "",
          "type": "uint8"
        }
      ],
      "stateMutability": "view",
      "type": "function"
    },
    {
      "inputs": [],
      "name": "name",
      "outputs": [
        {
          "internalType": "string",
          "name": "",
          "type": "string"
        }
      ],
      "stateMutability": "view",
      "type": "function"
    },
    {
      "inputs": [],
      "name": "owner",
      "outputs": [
        {
          "internalType": "address",
          "name": "",
          "type": "address"
        }
      ],
      "stateMutability": "view",
      "type": "function"
    },
    {
      "inputs": [],
      "name": "renounceOwnership",
      "outputs": [],
      "stateMutability": "nonpayable",
      "type": "function"
    },
    {
      "inputs": [
        {
          "internalType": "address",
          "name": "",
          "type": "address"
        }
      ],
      "name": "spent",
      "outputs": [
        {
          "internalType": "uint256",
          "name": "",
          "type": "uint256"
        }
      ],
      "stateMutability": "view",
      "type": "function"
    },
    {
      "inputs": [],
      "name": "symbol",
      "outputs": [
        {
          "internalType": "string",
          "name": "",
          "type": "string"
        }
      ],
      "stateMutability": "view",
      "type": "function"
    },
    {
      "inputs": [],
      "name": "totalReceived",
      "outputs": [
        {
          "internalType": "uint256",
          "name": "",
          "type": "uint256"
        }
      ],
      "stateMutability": "view",
      "type": "function"
    },
    {
      "inputs": [],
      "name": "totalSupply",
      "outputs": [
        {
          "internalType": "uint256",
          "name": "",
          "type": "uint256"
        }
      ],
      "stateMutability": "view",
      "type": "function"
    },
    {
      "inputs": [
        {
          "internalType": "address",
          "name": "to",
          "type": "address"
        },
        {
          "internalType": "uint256",
          "name": "amount",
          "type": "uint256"
        }
      ],
      "name": "transfer",
      "outputs": [
        {
          "internalType": "bool",
          "name": "",
          "type": "bool"
        }
      ],
      "stateMutability": "nonpayable",
      "type": "function"
    },
    {
      "inputs": [
        {
          "internalType": "address",
          "name": "from",
          "type": "address"
        },
        {
          "internalType": "address",
          "name": "to",
          "type": "address"
        },
        {
          "internalType": "uint256",
          "name": "amount",
          "type": "uint256"
        }
      ],
      "name": "transferFrom",
      "outputs": [
        {
          "internalType": "bool",
          "name": "",
          "type": "bool"
        }
      ],
      "stateMutability": "nonpayable",
      "type": "function"
    },
    {
      "inputs": [
        {
          "internalType": "address",
          "name": "newOwner",
          "type": "address"
        }
      ],
      "name": "transferOwnership",
      "outputs": [],
      "stateMutability": "nonpayable",
      "type": "function"
    },
    {
      "inputs": [],
      "name": "withdraw",
      "outputs": [],
      "stateMutability": "nonpayable",
      "type": "function"
    },
    {
      "stateMutability": "payable",
      "type": "receive"
    }
  ],
  "transactionHash": "0xc002643bf235ca9e77be59d2039f48faa47cf6855e6eac1d8cd8de824c52259d",
  "args": [
    "TEST002",
    "T002",
    "1000000000000000000000000"
  ],
  "numDeployments": 1,
  "solcInputHash": "fe3a9f9e67394b706370c9411a8976a7",
  "bytecode": "0x60806040523480156200001157600080fd5b506040516200250d3803806200250d833981810160405281019062000037919062000654565b828233600073ffffffffffffffffffffffffffffffffffffffff168173ffffffffffffffffffffffffffffffffffffffff1603620000af5760006040517f1e4fbdf7000000000000000000000000000000000000000000000000000000008152600401620000a6919062000733565b60405180910390fd5b620000c0816200010260201b60201c565b508160049081620000d2919062000991565b508060059081620000e4919062000991565b505050620000f93382620001c660201b60201c565b50505062000b4d565b60008060009054906101000a900473ffffffffffffffffffffffffffffffffffffffff169050816000806101000a81548173ffffffffffffffffffffffffffffffffffffffff021916908373ffffffffffffffffffffffffffffffffffffffff1602179055508173ffffffffffffffffffffffffffffffffffffffff168173ffffffffffffffffffffffffffffffffffffffff167f8be0079c531659141344cd1fd0a4f28419497f9722a3daafe3b4186f6b6457e060405160405180910390a35050565b600073ffffffffffffffffffffffffffffffffffffffff168273ffffffffffffffffffffffffffffffffffffffff16036200023b5760006040517fec442f0500000000000000000000000000000000000000000000000000000000815260040162000232919062000733565b60405180910390fd5b6200024f600083836200025360201b60201c565b5050565b600073ffffffffffffffffffffffffffffffffffffffff168373ffffffffffffffffffffffffffffffffffffffff1603620002a95780600360008282546200029c919062000aa7565b9250508190555062000381565b6000600160008573ffffffffffffffffffffffffffffffffffffffff1673ffffffffffffffffffffffffffffffffffffffff1681526020019081526020016000205490508181101562000339578381836040517fe450d38c000000000000000000000000000000000000000000000000000000008152600401620003309392919062000af3565b60405180910390fd5b818103600160008673ffffffffffffffffffffffffffffffffffffffff1673ffffffffffffffffffffffffffffffffffffffff16815260200190815260200160002081905550505b600073ffffffffffffffffffffffffffffffffffffffff168273ffffffffffffffffffffffffffffffffffffffff1603620003cc57806003600082825403925050819055506200041a565b80600160008473ffffffffffffffffffffffffffffffffffffffff1673ffffffffffffffffffffffffffffffffffffffff168152602001908152602001600020600082825401925050819055505b8173ffffffffffffffffffffffffffffffffffffffff168373ffffffffffffffffffffffffffffffffffffffff167fddf252ad1be2c89b69c2b068fc378daa952ba7f163c4a11628f55a4df523b3ef8360405162000479919062000b30565b60405180910390a3505050565b6000604051905090565b600080fd5b600080fd5b600080fd5b600080fd5b6000601f19601f8301169050919050565b7f4e487b7100000000000000000000000000000000000000000000000000000000600052604160045260246000fd5b620004ef82620004a4565b810181811067ffffffffffffffff82111715620005115762000510620004b5565b5b80604052505050565b60006200052662000486565b9050620005348282620004e4565b919050565b600067ffffffffffffffff821115620005575762000556620004b5565b5b6200056282620004a4565b9050602081019050919050565b60005b838110156200058f57808201518184015260208101905062000572565b60008484015250505050565b6000620005b2620005ac8462000539565b6200051a565b905082815260208101848484011115620005d157620005d06200049f565b5b620005de8482856200056f565b509392505050565b600082601f830112620005fe57620005fd6200049a565b5b8151620006108482602086016200059b565b91505092915050565b6000819050919050565b6200062e8162000619565b81146200063a57600080fd5b50565b6000815190506200064e8162000623565b92915050565b60008060006060848603121562000670576200066f62000490565b5b600084015167ffffffffffffffff81111562000691576200069062000495565b5b6200069f86828701620005e6565b935050602084015167ffffffffffffffff811115620006c357620006c262000495565b5b620006d186828701620005e6565b9250506040620006e4868287016200063d565b9150509250925092565b600073ffffffffffffffffffffffffffffffffffffffff82169050919050565b60006200071b82620006ee565b9050919050565b6200072d816200070e565b82525050565b60006020820190506200074a600083018462000722565b92915050565b600081519050919050565b7f4e487b7100000000000000000000000000000000000000000000000000000000600052602260045260246000fd5b60006002820490506001821680620007a357607f821691505b602082108103620007b957620007b86200075b565b5b50919050565b60008190508160005260206000209050919050565b60006020601f8301049050919050565b600082821b905092915050565b600060088302620008237fffffffffffffffffffffffffffffffffffffffffffffffffffffffffffffffff82620007e4565b6200082f8683620007e4565b95508019841693508086168417925050509392505050565b6000819050919050565b6000620008726200086c620008668462000619565b62000847565b62000619565b9050919050565b6000819050919050565b6200088e8362000851565b620008a66200089d8262000879565b848454620007f1565b825550505050565b600090565b620008bd620008ae565b620008ca81848462000883565b505050565b5b81811015620008f257620008e6600082620008b3565b600181019050620008d0565b5050565b601f82111562000941576200090b81620007bf565b6200091684620007d4565b8101602085101562000926578190505b6200093e6200093585620007d4565b830182620008cf565b50505b505050565b600082821c905092915050565b6000620009666000198460080262000946565b1980831691505092915050565b600062000981838362000953565b9150826002028217905092915050565b6200099c8262000750565b67ffffffffffffffff811115620009b857620009b7620004b5565b5b620009c482546200078a565b620009d1828285620008f6565b600060209050601f83116001811462000a095760008415620009f4578287015190505b62000a00858262000973565b86555062000a70565b601f19841662000a1986620007bf565b60005b8281101562000a435784890151825560018201915060208501945060208101905062000a1c565b8683101562000a63578489015162000a5f601f89168262000953565b8355505b6001600288020188555050505b505050505050565b7f4e487b7100000000000000000000000000000000000000000000000000000000600052601160045260246000fd5b600062000ab48262000619565b915062000ac18362000619565b925082820190508082111562000adc5762000adb62000a78565b5b92915050565b62000aed8162000619565b82525050565b600060608201905062000b0a600083018662000722565b62000b19602083018562000ae2565b62000b28604083018462000ae2565b949350505050565b600060208201905062000b47600083018462000ae2565b92915050565b6119b08062000b5d6000396000f3fe6080604052600436106100ec5760003560e01c806370a082311161008a578063a3c2c46211610059578063a3c2c46214610345578063a9059cbb14610370578063dd62ed3e146103ad578063f2fde38b146103ea57610147565b806370a082311461029b578063715018a6146102d85780638da5cb5b146102ef57806395d89b411461031a57610147565b80631e6a41ea116100c65780631e6a41ea146101df57806323b872dd1461021c578063313ce567146102595780633ccfd60b1461028457610147565b806306fdde031461014c578063095ea7b31461017757806318160ddd146101b457610147565b3661014757346006600082825461010391906113d4565b925050819055507f145510a4268f342ac0c63bc581fa02839bf2df99b7cdcec547f1efad649b0ca93460065460405161013d929190611417565b60405180910390a1005b600080fd5b34801561015857600080fd5b50610161610413565b60405161016e91906114d0565b60405180910390f35b34801561018357600080fd5b5061019e60048036038101906101999190611581565b6104a5565b6040516101ab91906115dc565b60405180910390f35b3480156101c057600080fd5b506101c96104c8565b6040516101d691906115f7565b60405180910390f35b3480156101eb57600080fd5b5061020660048036038101906102019190611612565b6104d2565b60405161021391906115f7565b60405180910390f35b34801561022857600080fd5b50610243600480360381019061023e919061163f565b6104ea565b60405161025091906115dc565b60405180910390f35b34801561026557600080fd5b5061026e610634565b60405161027b91906116ae565b60405180910390f35b34801561029057600080fd5b5061029961063d565b005b3480156102a757600080fd5b506102c260048036038101906102bd9190611612565b610742565b6040516102cf91906115f7565b60405180910390f35b3480156102e457600080fd5b506102ed61078b565b005b3480156102fb57600080fd5b5061030461079f565b60405161031191906116d8565b60405180910390f35b34801561032657600080fd5b5061032f6107c8565b60405161033c91906114d0565b60405180910390f35b34801561035157600080fd5b5061035a61085a565b60405161036791906115f7565b60405180910390f35b34801561037c57600080fd5b5061039760048036038101906103929190611581565b610860565b6040516103a491906115dc565b60405180910390f35b3480156103b957600080fd5b506103d460048036038101906103cf91906116f3565b6109a8565b6040516103e191906115f7565b60405180910390f35b3480156103f657600080fd5b50610411600480360381019061040c9190611612565b610a2f565b005b60606004805461042290611762565b80601f016020809104026020016040519081016040528092919081815260200182805461044e90611762565b801561049b5780601f106104705761010080835404028352916020019161049b565b820191906000526020600020905b81548152906001019060200180831161047e57829003601f168201915b5050505050905090565b6000806104b0610ab5565b90506104bd818585610abd565b600191505092915050565b6000600354905090565b60076020528060005260406000206000915090505481565b6000816104f685610742565b1015610537576040517f08c379a000000000000000000000000000000000000000000000000000000000815260040161052e906117df565b60405180910390fd5b60008261054386610742565b61054d91906117ff565b905060008361055b86610742565b61056591906113d4565b905060008061057688888686610acf565b9150915060008211156105cb578773ffffffffffffffffffffffffffffffffffffffff166108fc839081150290604051600060405180830381858888f193505050501580156105c9573d6000803e3d6000fd5b505b600081111561061c578673ffffffffffffffffffffffffffffffffffffffff166108fc829081150290604051600060405180830381858888f1935050505015801561061a573d6000803e3d6000fd5b505b610627888888610bf4565b9450505050509392505050565b60006012905090565b600061064833610c23565b90506106526104c8565b60065461065e33610742565b6106689190611833565b61067291906118a4565b600760003373ffffffffffffffffffffffffffffffffffffffff1673ffffffffffffffffffffffffffffffffffffffff168152602001908152602001600020819055506000811115610706573373ffffffffffffffffffffffffffffffffffffffff166108fc829081150290604051600060405180830381858888f19350505050158015610704573d6000803e3d6000fd5b505b7f87d5f4772963d1f9b76047158b4ae97c420a1b3bff2a746c828beffd9e7c3e2633826040516107379291906118d5565b60405180910390a150565b6000600160008373ffffffffffffffffffffffffffffffffffffffff1673ffffffffffffffffffffffffffffffffffffffff168152602001908152602001600020549050919050565b610793610ca6565b61079d6000610d2d565b565b60008060009054906101000a900473ffffffffffffffffffffffffffffffffffffffff16905090565b6060600580546107d790611762565b80601f016020809104026020016040519081016040528092919081815260200182805461080390611762565b80156108505780601f1061082557610100808354040283529160200191610850565b820191906000526020600020905b81548152906001019060200180831161083357829003601f168201915b5050505050905090565b60065481565b60008161086c33610742565b10156108ad576040517f08c379a00000000000000000000000000000000000000000000000000000000081526004016108a4906117df565b60405180910390fd5b6000826108b933610742565b6108c391906117ff565b90506000836108d186610742565b6108db91906113d4565b90506000806108ec33888686610acf565b915091506000821115610941573373ffffffffffffffffffffffffffffffffffffffff166108fc839081150290604051600060405180830381858888f1935050505015801561093f573d6000803e3d6000fd5b505b6000811115610992578673ffffffffffffffffffffffffffffffffffffffff166108fc829081150290604051600060405180830381858888f19350505050158015610990573d6000803e3d6000fd5b505b61099c8787610df1565b94505050505092915050565b6000600260008473ffffffffffffffffffffffffffffffffffffffff1673ffffffffffffffffffffffffffffffffffffffff16815260200190815260200160002060008373ffffffffffffffffffffffffffffffffffffffff1673ffffffffffffffffffffffffffffffffffffffff16815260200190815260200160002054905092915050565b610a37610ca6565b600073ffffffffffffffffffffffffffffffffffffffff168173ffffffffffffffffffffffffffffffffffffffff1603610aa95760006040517f1e4fbdf7000000000000000000000000000000000000000000000000000000008152600401610aa091906116d8565b60405180910390fd5b610ab281610d2d565b50565b600033905090565b610aca8383836001610e14565b505050565b600080610adb86610c23565b9150610ae685610c23565b9050610af06104c8565b60065485610afe9190611833565b610b0891906118a4565b600760008873ffffffffffffffffffffffffffffffffffffffff1673ffffffffffffffffffffffffffffffffffffffff16815260200190815260200160002081905550610b536104c8565b60065484610b619190611833565b610b6b91906118a4565b600760008773ffffffffffffffffffffffffffffffffffffffff1673ffffffffffffffffffffffffffffffffffffffff168152602001908152602001600020819055507f32b7f9b68a5157772b72a286a96849fae9c6d8e45d8f412ce7a4ec890a8f0c8386868484604051610be394939291906118fe565b60405180910390a194509492505050565b600080610bff610ab5565b9050610c0c858285610feb565b610c1785858561107f565b60019150509392505050565b600080610c2e6104c8565b600654610c3a85610742565b610c449190611833565b610c4e91906118a4565b9050600760008473ffffffffffffffffffffffffffffffffffffffff1673ffffffffffffffffffffffffffffffffffffffff1681526020019081526020016000205481610c9b91906117ff565b905080915050919050565b610cae610ab5565b73ffffffffffffffffffffffffffffffffffffffff16610ccc61079f565b73ffffffffffffffffffffffffffffffffffffffff1614610d2b57610cef610ab5565b6040517f118cdaa7000000000000000000000000000000000000000000000000000000008152600401610d2291906116d8565b60405180910390fd5b565b60008060009054906101000a900473ffffffffffffffffffffffffffffffffffffffff169050816000806101000a81548173ffffffffffffffffffffffffffffffffffffffff021916908373ffffffffffffffffffffffffffffffffffffffff1602179055508173ffffffffffffffffffffffffffffffffffffffff168173ffffffffffffffffffffffffffffffffffffffff167f8be0079c531659141344cd1fd0a4f28419497f9722a3daafe3b4186f6b6457e060405160405180910390a35050565b600080610dfc610ab5565b9050610e0981858561107f565b600191505092915050565b600073ffffffffffffffffffffffffffffffffffffffff168473ffffffffffffffffffffffffffffffffffffffff1603610e865760006040517fe602df05000000000000000000000000000000000000000000000000000000008152600401610e7d91906116d8565b60405180910390fd5b600073ffffffffffffffffffffffffffffffffffffffff168373ffffffffffffffffffffffffffffffffffffffff1603610ef85760006040517f94280d62000000000000000000000000000000000000000000000000000000008152600401610eef91906116d8565b60405180910390fd5b81600260008673ffffffffffffffffffffffffffffffffffffffff1673ffffffffffffffffffffffffffffffffffffffff16815260200190815260200160002060008573ffffffffffffffffffffffffffffffffffffffff1673ffffffffffffffffffffffffffffffffffffffff168152602001908152602001600020819055508015610fe5578273ffffffffffffffffffffffffffffffffffffffff168473ffffffffffffffffffffffffffffffffffffffff167f8c5be1e5ebec7d5bd14f71427d1e84f3dd0314c0f7b2291e5b200ac8c7c3b92584604051610fdc91906115f7565b60405180910390a35b50505050565b6000610ff784846109a8565b90507fffffffffffffffffffffffffffffffffffffffffffffffffffffffffffffffff81146110795781811015611069578281836040517ffb8f41b200000000000000000000000000000000000000000000000000000000815260040161106093929190611943565b60405180910390fd5b61107884848484036000610e14565b5b50505050565b600073ffffffffffffffffffffffffffffffffffffffff168373ffffffffffffffffffffffffffffffffffffffff16036110f15760006040517f96c6fd1e0000000000000000000000000000000000000000000000000000000081526004016110e891906116d8565b60405180910390fd5b600073ffffffffffffffffffffffffffffffffffffffff168273ffffffffffffffffffffffffffffffffffffffff16036111635760006040517fec442f0500000000000000000000000000000000000000000000000000000000815260040161115a91906116d8565b60405180910390fd5b61116e838383611173565b505050565b600073ffffffffffffffffffffffffffffffffffffffff168373ffffffffffffffffffffffffffffffffffffffff16036111c55780600360008282546111b991906113d4565b9250508190555061129a565b6000600160008573ffffffffffffffffffffffffffffffffffffffff1673ffffffffffffffffffffffffffffffffffffffff16815260200190815260200160002054905081811015611252578381836040517fe450d38c00000000000000000000000000000000000000000000000000000000815260040161124993929190611943565b60405180910390fd5b818103600160008673ffffffffffffffffffffffffffffffffffffffff1673ffffffffffffffffffffffffffffffffffffffff16815260200190815260200160002081905550505b600073ffffffffffffffffffffffffffffffffffffffff168273ffffffffffffffffffffffffffffffffffffffff16036112e35780600360008282540392505081905550611331565b80600160008473ffffffffffffffffffffffffffffffffffffffff1673ffffffffffffffffffffffffffffffffffffffff168152602001908152602001600020600082825401925050819055505b8173ffffffffffffffffffffffffffffffffffffffff168373ffffffffffffffffffffffffffffffffffffffff167fddf252ad1be2c89b69c2b068fc378daa952ba7f163c4a11628f55a4df523b3ef8360405161138e91906115f7565b60405180910390a3505050565b6000819050919050565b7f4e487b7100000000000000000000000000000000000000000000000000000000600052601160045260246000fd5b60006113df8261139b565b91506113ea8361139b565b9250828201905080821115611402576114016113a5565b5b92915050565b6114118161139b565b82525050565b600060408201905061142c6000830185611408565b6114396020830184611408565b9392505050565b600081519050919050565b600082825260208201905092915050565b60005b8381101561147a57808201518184015260208101905061145f565b60008484015250505050565b6000601f19601f8301169050919050565b60006114a282611440565b6114ac818561144b565b93506114bc81856020860161145c565b6114c581611486565b840191505092915050565b600060208201905081810360008301526114ea8184611497565b905092915050565b600080fd5b600073ffffffffffffffffffffffffffffffffffffffff82169050919050565b6000611522826114f7565b9050919050565b61153281611517565b811461153d57600080fd5b50565b60008135905061154f81611529565b92915050565b61155e8161139b565b811461156957600080fd5b50565b60008135905061157b81611555565b92915050565b60008060408385031215611598576115976114f2565b5b60006115a685828601611540565b92505060206115b78582860161156c565b9150509250929050565b60008115159050919050565b6115d6816115c1565b82525050565b60006020820190506115f160008301846115cd565b92915050565b600060208201905061160c6000830184611408565b92915050565b600060208284031215611628576116276114f2565b5b600061163684828501611540565b91505092915050565b600080600060608486031215611658576116576114f2565b5b600061166686828701611540565b935050602061167786828701611540565b92505060406116888682870161156c565b9150509250925092565b600060ff82169050919050565b6116a881611692565b82525050565b60006020820190506116c3600083018461169f565b92915050565b6116d281611517565b82525050565b60006020820190506116ed60008301846116c9565b92915050565b6000806040838503121561170a576117096114f2565b5b600061171885828601611540565b925050602061172985828601611540565b9150509250929050565b7f4e487b7100000000000000000000000000000000000000000000000000000000600052602260045260246000fd5b6000600282049050600182168061177a57607f821691505b60208210810361178d5761178c611733565b5b50919050565b7f416d6f756e7420657863656564732062616c616e636500000000000000000000600082015250565b60006117c960168361144b565b91506117d482611793565b602082019050919050565b600060208201905081810360008301526117f8816117bc565b9050919050565b600061180a8261139b565b91506118158361139b565b925082820390508181111561182d5761182c6113a5565b5b92915050565b600061183e8261139b565b91506118498361139b565b92508282026118578161139b565b9150828204841483151761186e5761186d6113a5565b5b5092915050565b7f4e487b7100000000000000000000000000000000000000000000000000000000600052601260045260246000fd5b60006118af8261139b565b91506118ba8361139b565b9250826118ca576118c9611875565b5b828204905092915050565b60006040820190506118ea60008301856116c9565b6118f76020830184611408565b9392505050565b600060808201905061191360008301876116c9565b61192060208301866116c9565b61192d6040830185611408565b61193a6060830184611408565b95945050505050565b600060608201905061195860008301866116c9565b6119656020830185611408565b6119726040830184611408565b94935050505056fea2646970667358221220e4e57b10b3d279940b7ba17c81ec86ab96004a95a2e87775f348b6732a43c8b464736f6c63430008140033",
  "devdoc": {
    "errors": {
      "ERC20InsufficientAllowance(address,uint256,uint256)": [
        {
          "details": "Indicates a failure with the `spender`s `allowance`. Used in transfers.",
          "params": {
            "allowance": "Amount of tokens a `spender` is allowed to operate with.",
            "needed": "Minimum amount required to perform a transfer.",
            "spender": "Address that may be allowed to operate on tokens without being their owner."
          }
        }
      ],
      "ERC20InsufficientBalance(address,uint256,uint256)": [
        {
          "details": "Indicates an error related to the current `balance` of a `sender`. Used in transfers.",
          "params": {
            "balance": "Current balance for the interacting account.",
            "needed": "Minimum amount required to perform a transfer.",
            "sender": "Address whose tokens are being transferred."
          }
        }
      ],
      "ERC20InvalidApprover(address)": [
        {
          "details": "Indicates a failure with the `approver` of a token to be approved. Used in approvals.",
          "params": {
            "approver": "Address initiating an approval operation."
          }
        }
      ],
      "ERC20InvalidReceiver(address)": [
        {
          "details": "Indicates a failure with the token `receiver`. Used in transfers.",
          "params": {
            "receiver": "Address to which tokens are being transferred."
          }
        }
      ],
      "ERC20InvalidSender(address)": [
        {
          "details": "Indicates a failure with the token `sender`. Used in transfers.",
          "params": {
            "sender": "Address whose tokens are being transferred."
          }
        }
      ],
      "ERC20InvalidSpender(address)": [
        {
          "details": "Indicates a failure with the `spender` to be approved. Used in approvals.",
          "params": {
            "spender": "Address that may be allowed to operate on tokens without being their owner."
          }
        }
      ],
      "OwnableInvalidOwner(address)": [
        {
          "details": "The owner is not a valid owner account. (eg. `address(0)`)"
        }
      ],
      "OwnableUnauthorizedAccount(address)": [
        {
          "details": "The caller account is not authorized to perform an operation."
        }
      ]
    },
    "events": {
      "Approval(address,address,uint256)": {
        "details": "Emitted when the allowance of a `spender` for an `owner` is set by a call to {approve}. `value` is the new allowance."
      },
      "Transfer(address,address,uint256)": {
        "details": "Emitted when `value` tokens are moved from one account (`from`) to another (`to`). Note that `value` may be zero."
      }
    },
    "kind": "dev",
    "methods": {
      "allowance(address,address)": {
        "details": "See {IERC20-allowance}."
      },
      "approve(address,uint256)": {
        "details": "See {IERC20-approve}. NOTE: If `value` is the maximum `uint256`, the allowance is not updated on `transferFrom`. This is semantically equivalent to an infinite approval. Requirements: - `spender` cannot be the zero address."
      },
      "balanceOf(address)": {
        "details": "See {IERC20-balanceOf}."
      },
      "decimals()": {
        "details": "Returns the number of decimals used to get its user representation. For example, if `decimals` equals `2`, a balance of `505` tokens should be displayed to a user as `5.05` (`505 / 10 ** 2`). Tokens usually opt for a value of 18, imitating the relationship between Ether and Wei. This is the default value returned by this function, unless it's overridden. NOTE: This information is only used for _display_ purposes: it in no way affects any of the arithmetic of the contract, including {IERC20-balanceOf} and {IERC20-transfer}."
      },
      "name()": {
        "details": "Returns the name of the token."
      },
      "owner()": {
        "details": "Returns the address of the current owner."
      },
      "renounceOwnership()": {
        "details": "Leaves the contract without owner. It will not be possible to call `onlyOwner` functions. Can only be called by the current owner. NOTE: Renouncing ownership will leave the contract without an owner, thereby disabling any functionality that is only available to the owner."
      },
      "symbol()": {
        "details": "Returns the symbol of the token, usually a shorter version of the name."
      },
      "totalSupply()": {
        "details": "See {IERC20-totalSupply}."
      },
      "transferOwnership(address)": {
        "details": "Transfers ownership of the contract to a new account (`newOwner`). Can only be called by the current owner."
      }
    },
    "version": 1
  },
  "userdoc": {
    "kind": "user",
    "methods": {},
    "notice": "CONTRACT util STO Utility to take track of earnings",
    "version": 1
  },
  "storageLayout": {
    "storage": [
      {
        "astId": 8,
        "contract": "contracts/ST_crypt.sol:ST_crypt",
        "label": "_owner",
        "offset": 0,
        "slot": "0",
        "type": "t_address"
      },
      {
        "astId": 307,
        "contract": "contracts/ST_crypt.sol:ST_crypt",
        "label": "_balances",
        "offset": 0,
        "slot": "1",
        "type": "t_mapping(t_address,t_uint256)"
      },
      {
        "astId": 313,
        "contract": "contracts/ST_crypt.sol:ST_crypt",
        "label": "_allowances",
        "offset": 0,
        "slot": "2",
        "type": "t_mapping(t_address,t_mapping(t_address,t_uint256))"
      },
      {
        "astId": 315,
        "contract": "contracts/ST_crypt.sol:ST_crypt",
        "label": "_totalSupply",
        "offset": 0,
        "slot": "3",
        "type": "t_uint256"
      },
      {
        "astId": 317,
        "contract": "contracts/ST_crypt.sol:ST_crypt",
        "label": "_name",
        "offset": 0,
        "slot": "4",
        "type": "t_string_storage"
      },
      {
        "astId": 319,
        "contract": "contracts/ST_crypt.sol:ST_crypt",
        "label": "_symbol",
        "offset": 0,
        "slot": "5",
        "type": "t_string_storage"
      },
      {
        "astId": 944,
        "contract": "contracts/ST_crypt.sol:ST_crypt",
        "label": "totalReceived",
        "offset": 0,
        "slot": "6",
        "type": "t_uint256"
      },
      {
        "astId": 948,
        "contract": "contracts/ST_crypt.sol:ST_crypt",
        "label": "spent",
        "offset": 0,
        "slot": "7",
        "type": "t_mapping(t_address,t_uint256)"
      }
    ],
    "types": {
      "t_address": {
        "encoding": "inplace",
        "label": "address",
        "numberOfBytes": "20"
      },
      "t_mapping(t_address,t_mapping(t_address,t_uint256))": {
        "encoding": "mapping",
        "key": "t_address",
        "label": "mapping(address => mapping(address => uint256))",
        "numberOfBytes": "32",
        "value": "t_mapping(t_address,t_uint256)"
      },
      "t_mapping(t_address,t_uint256)": {
        "encoding": "mapping",
        "key": "t_address",
        "label": "mapping(address => uint256)",
        "numberOfBytes": "32",
        "value": "t_uint256"
      },
      "t_string_storage": {
        "encoding": "bytes",
        "label": "string",
        "numberOfBytes": "32"
      },
      "t_uint256": {
        "encoding": "inplace",
        "label": "uint256",
        "numberOfBytes": "32"
      }
    }
  }
}