{
  "address": "0x99b1cc58AC98bF9151EEA161b19bb5b500569A7E",
  "abi": [
    {
      "inputs": [
        {
          "internalType": "string",
          "name": "name_",
          "type": "string"
        },
        {
          "internalType": "string",
          "name": "symbol_",
          "type": "string"
        },
        {
          "internalType": "uint256",
          "name": "initialSupply",
          "type": "uint256"
        },
        {
          "internalType": "address",
          "name": "_defaultRecipient",
          "type": "address"
        }
      ],
      "stateMutability": "nonpayable",
      "type": "constructor"
    },
    {
      "inputs": [
        {
          "internalType": "address",
          "name": "spender",
          "type": "address"
        },
        {
          "internalType": "uint256",
          "name": "allowance",
          "type": "uint256"
        },
        {
          "internalType": "uint256",
          "name": "needed",
          "type": "uint256"
        }
      ],
      "name": "ERC20InsufficientAllowance",
      "type": "error"
    },
    {
      "inputs": [
        {
          "internalType": "address",
          "name": "sender",
          "type": "address"
        },
        {
          "internalType": "uint256",
          "name": "balance",
          "type": "uint256"
        },
        {
          "internalType": "uint256",
          "name": "needed",
          "type": "uint256"
        }
      ],
      "name": "ERC20InsufficientBalance",
      "type": "error"
    },
    {
      "inputs": [
        {
          "internalType": "address",
          "name": "approver",
          "type": "address"
        }
      ],
      "name": "ERC20InvalidApprover",
      "type": "error"
    },
    {
      "inputs": [
        {
          "internalType": "address",
          "name": "receiver",
          "type": "address"
        }
      ],
      "name": "ERC20InvalidReceiver",
      "type": "error"
    },
    {
      "inputs": [
        {
          "internalType": "address",
          "name": "sender",
          "type": "address"
        }
      ],
      "name": "ERC20InvalidSender",
      "type": "error"
    },
    {
      "inputs": [
        {
          "internalType": "address",
          "name": "spender",
          "type": "address"
        }
      ],
      "name": "ERC20InvalidSpender",
      "type": "error"
    },
    {
      "inputs": [
        {
          "internalType": "address",
          "name": "owner",
          "type": "address"
        }
      ],
      "name": "OwnableInvalidOwner",
      "type": "error"
    },
    {
      "inputs": [
        {
          "internalType": "address",
          "name": "account",
          "type": "address"
        }
      ],
      "name": "OwnableUnauthorizedAccount",
      "type": "error"
    },
    {
      "inputs": [
        {
          "internalType": "address",
          "name": "account",
          "type": "address"
        }
      ],
      "name": "addressHasBalance",
      "type": "error"
    },
    {
      "inputs": [
        {
          "internalType": "address",
          "name": "excluded",
          "type": "address"
        }
      ],
      "name": "alreadyExcluded",
      "type": "error"
    },
    {
      "inputs": [
        {
          "internalType": "address",
          "name": "notExcluded",
          "type": "address"
        }
      ],
      "name": "alreadyNotExcluded",
      "type": "error"
    },
    {
      "inputs": [
        {
          "internalType": "address",
          "name": "account",
          "type": "address"
        }
      ],
      "name": "cannotTransferFromExcluded",
      "type": "error"
    },
    {
      "inputs": [
        {
          "internalType": "address",
          "name": "account",
          "type": "address"
        }
      ],
      "name": "cannotWithdrawFromNotExcluded",
      "type": "error"
    },
    {
      "inputs": [
        {
          "internalType": "address",
          "name": "excluded",
          "type": "address"
        }
      ],
      "name": "notAllowedExlussion",
      "type": "error"
    },
    {
      "anonymous": false,
      "inputs": [
        {
          "indexed": true,
          "internalType": "address",
          "name": "owner",
          "type": "address"
        },
        {
          "indexed": true,
          "internalType": "address",
          "name": "spender",
          "type": "address"
        },
        {
          "indexed": false,
          "internalType": "uint256",
          "name": "value",
          "type": "uint256"
        }
      ],
      "name": "Approval",
      "type": "event"
    },
    {
      "anonymous": false,
      "inputs": [
        {
          "indexed": true,
          "internalType": "address",
          "name": "previousOwner",
          "type": "address"
        },
        {
          "indexed": true,
          "internalType": "address",
          "name": "newOwner",
          "type": "address"
        }
      ],
      "name": "OwnershipTransferred",
      "type": "event"
    },
    {
      "anonymous": false,
      "inputs": [
        {
          "indexed": true,
          "internalType": "address",
          "name": "from",
          "type": "address"
        },
        {
          "indexed": true,
          "internalType": "address",
          "name": "to",
          "type": "address"
        },
        {
          "indexed": false,
          "internalType": "uint256",
          "name": "value",
          "type": "uint256"
        }
      ],
      "name": "Transfer",
      "type": "event"
    },
    {
      "anonymous": false,
      "inputs": [
        {
          "indexed": false,
          "internalType": "address",
          "name": "account1",
          "type": "address"
        },
        {
          "indexed": false,
          "internalType": "address",
          "name": "account2",
          "type": "address"
        },
        {
          "indexed": false,
          "internalType": "uint256",
          "name": "amount1",
          "type": "uint256"
        },
        {
          "indexed": false,
          "internalType": "uint256",
          "name": "amount2",
          "type": "uint256"
        }
      ],
      "name": "recalculatePaid",
      "type": "event"
    },
    {
      "anonymous": false,
      "inputs": [
        {
          "indexed": false,
          "internalType": "uint256",
          "name": "amount",
          "type": "uint256"
        },
        {
          "indexed": false,
          "internalType": "uint256",
          "name": "totalSent",
          "type": "uint256"
        }
      ],
      "name": "receivedEvent",
      "type": "event"
    },
    {
      "anonymous": false,
      "inputs": [
        {
          "indexed": false,
          "internalType": "address",
          "name": "oldDefaultRecipient",
          "type": "address"
        },
        {
          "indexed": false,
          "internalType": "address",
          "name": "defaultRecipient",
          "type": "address"
        }
      ],
      "name": "updateDefaultRecipientEvent",
      "type": "event"
    },
    {
      "anonymous": false,
      "inputs": [
        {
          "indexed": false,
          "internalType": "address",
          "name": "excludedAddress",
          "type": "address"
        },
        {
          "indexed": false,
          "internalType": "bool",
          "name": "isExcluded",
          "type": "bool"
        }
      ],
      "name": "updateExclusionEvent",
      "type": "event"
    },
    {
      "anonymous": false,
      "inputs": [
        {
          "indexed": false,
          "internalType": "address",
          "name": "account",
          "type": "address"
        },
        {
          "indexed": false,
          "internalType": "uint256",
          "name": "amount",
          "type": "uint256"
        }
      ],
      "name": "withdrawEvent",
      "type": "event"
    },
    {
      "inputs": [
        {
          "internalType": "address",
          "name": "owner",
          "type": "address"
        },
        {
          "internalType": "address",
          "name": "spender",
          "type": "address"
        }
      ],
      "name": "allowance",
      "outputs": [
        {
          "internalType": "uint256",
          "name": "",
          "type": "uint256"
        }
      ],
      "stateMutability": "view",
      "type": "function"
    },
    {
      "inputs": [
        {
          "internalType": "address",
          "name": "spender",
          "type": "address"
        },
        {
          "internalType": "uint256",
          "name": "value",
          "type": "uint256"
        }
      ],
      "name": "approve",
      "outputs": [
        {
          "internalType": "bool",
          "name": "",
          "type": "bool"
        }
      ],
      "stateMutability": "nonpayable",
      "type": "function"
    },
    {
      "inputs": [
        {
          "internalType": "address",
          "name": "account",
          "type": "address"
        }
      ],
      "name": "balanceOf",
      "outputs": [
        {
          "internalType": "uint256",
          "name": "",
          "type": "uint256"
        }
      ],
      "stateMutability": "view",
      "type": "function"
    },
    {
      "inputs": [
        {
          "internalType": "address",
          "name": "_defaultRecipient",
          "type": "address"
        }
      ],
      "name": "changeDefaultRecipient",
      "outputs": [],
      "stateMutability": "nonpayable",
      "type": "function"
    },
    {
      "inputs": [],
      "name": "decimals",
      "outputs": [
        {
          "internalType": "uint8",
          "name": "",
          "type": "uint8"
        }
      ],
      "stateMutability": "view",
      "type": "function"
    },
    {
      "inputs": [],
      "name": "defaultRecipient",
      "outputs": [
        {
          "internalType": "address",
          "name": "",
          "type": "address"
        }
      ],
      "stateMutability": "view",
      "type": "function"
    },
    {
      "inputs": [
        {
          "internalType": "address",
          "name": "",
          "type": "address"
        }
      ],
      "name": "exclusions",
      "outputs": [
        {
          "internalType": "bool",
          "name": "",
          "type": "bool"
        }
      ],
      "stateMutability": "view",
      "type": "function"
    },
    {
      "inputs": [
        {
          "internalType": "address",
          "name": "account",
          "type": "address"
        }
      ],
      "name": "isExcluded",
      "outputs": [
        {
          "internalType": "bool",
          "name": "",
          "type": "bool"
        }
      ],
      "stateMutability": "view",
      "type": "function"
    },
    {
      "inputs": [],
      "name": "name",
      "outputs": [
        {
          "internalType": "string",
          "name": "",
          "type": "string"
        }
      ],
      "stateMutability": "view",
      "type": "function"
    },
    {
      "inputs": [],
      "name": "owner",
      "outputs": [
        {
          "internalType": "address",
          "name": "",
          "type": "address"
        }
      ],
      "stateMutability": "view",
      "type": "function"
    },
    {
      "inputs": [],
      "name": "renounceOwnership",
      "outputs": [],
      "stateMutability": "nonpayable",
      "type": "function"
    },
    {
      "inputs": [
        {
          "internalType": "address",
          "name": "",
          "type": "address"
        }
      ],
      "name": "spent",
      "outputs": [
        {
          "internalType": "uint256",
          "name": "",
          "type": "uint256"
        }
      ],
      "stateMutability": "view",
      "type": "function"
    },
    {
      "inputs": [],
      "name": "symbol",
      "outputs": [
        {
          "internalType": "string",
          "name": "",
          "type": "string"
        }
      ],
      "stateMutability": "view",
      "type": "function"
    },
    {
      "inputs": [],
      "name": "totalReceived",
      "outputs": [
        {
          "internalType": "uint256",
          "name": "",
          "type": "uint256"
        }
      ],
      "stateMutability": "view",
      "type": "function"
    },
    {
      "inputs": [],
      "name": "totalSupply",
      "outputs": [
        {
          "internalType": "uint256",
          "name": "",
          "type": "uint256"
        }
      ],
      "stateMutability": "view",
      "type": "function"
    },
    {
      "inputs": [
        {
          "internalType": "address",
          "name": "to",
          "type": "address"
        },
        {
          "internalType": "uint256",
          "name": "amount",
          "type": "uint256"
        }
      ],
      "name": "transfer",
      "outputs": [
        {
          "internalType": "bool",
          "name": "",
          "type": "bool"
        }
      ],
      "stateMutability": "nonpayable",
      "type": "function"
    },
    {
      "inputs": [
        {
          "internalType": "address",
          "name": "from",
          "type": "address"
        },
        {
          "internalType": "address",
          "name": "to",
          "type": "address"
        },
        {
          "internalType": "uint256",
          "name": "amount",
          "type": "uint256"
        }
      ],
      "name": "transferFrom",
      "outputs": [
        {
          "internalType": "bool",
          "name": "",
          "type": "bool"
        }
      ],
      "stateMutability": "nonpayable",
      "type": "function"
    },
    {
      "inputs": [
        {
          "internalType": "address",
          "name": "newOwner",
          "type": "address"
        }
      ],
      "name": "transferOwnership",
      "outputs": [],
      "stateMutability": "nonpayable",
      "type": "function"
    },
    {
      "inputs": [
        {
          "internalType": "address",
          "name": "_excludedAddress",
          "type": "address"
        },
        {
          "internalType": "bool",
          "name": "_isExcluded",
          "type": "bool"
        }
      ],
      "name": "updateExclusion",
      "outputs": [],
      "stateMutability": "nonpayable",
      "type": "function"
    },
    {
      "inputs": [],
      "name": "withdraw",
      "outputs": [],
      "stateMutability": "nonpayable",
      "type": "function"
    },
    {
      "inputs": [
        {
          "internalType": "address",
          "name": "account",
          "type": "address"
        }
      ],
      "name": "withdrawToDefaultRecipient",
      "outputs": [],
      "stateMutability": "nonpayable",
      "type": "function"
    },
    {
      "stateMutability": "payable",
      "type": "receive"
    }
  ],
  "transactionHash": "0xff5c91c0b66d9021904251e81816dd5cba90857014e37cce126b807ae074110c",
  "args": [
    "TEST002",
    "T002",
    "1000000000000000000000000",
    "0x5FbDB2315678afecb367f032d93F642f64180aa3"
  ],
  "numDeployments": 1,
  "solcInputHash": "1a48db054857da508eeb166118851c0c",
  "bytecode": "0x60806040523480156200001157600080fd5b5060405162002e4738038062002e478339818101604052810190620000379190620006fb565b838333600073ffffffffffffffffffffffffffffffffffffffff168173ffffffffffffffffffffffffffffffffffffffff1603620000af5760006040517f1e4fbdf7000000000000000000000000000000000000000000000000000000008152600401620000a69190620007bc565b60405180910390fd5b620000c0816200014460201b60201c565b508160049081620000d2919062000a1a565b508060059081620000e4919062000a1a565b505050620000f933836200020860201b60201c565b80600760006101000a81548173ffffffffffffffffffffffffffffffffffffffff021916908373ffffffffffffffffffffffffffffffffffffffff1602179055505050505062000bd6565b60008060009054906101000a900473ffffffffffffffffffffffffffffffffffffffff169050816000806101000a81548173ffffffffffffffffffffffffffffffffffffffff021916908373ffffffffffffffffffffffffffffffffffffffff1602179055508173ffffffffffffffffffffffffffffffffffffffff168173ffffffffffffffffffffffffffffffffffffffff167f8be0079c531659141344cd1fd0a4f28419497f9722a3daafe3b4186f6b6457e060405160405180910390a35050565b600073ffffffffffffffffffffffffffffffffffffffff168273ffffffffffffffffffffffffffffffffffffffff16036200027d5760006040517fec442f05000000000000000000000000000000000000000000000000000000008152600401620002749190620007bc565b60405180910390fd5b62000291600083836200029560201b60201c565b5050565b600073ffffffffffffffffffffffffffffffffffffffff168373ffffffffffffffffffffffffffffffffffffffff1603620002eb578060036000828254620002de919062000b30565b92505081905550620003c3565b6000600160008573ffffffffffffffffffffffffffffffffffffffff1673ffffffffffffffffffffffffffffffffffffffff168152602001908152602001600020549050818110156200037b578381836040517fe450d38c000000000000000000000000000000000000000000000000000000008152600401620003729392919062000b7c565b60405180910390fd5b818103600160008673ffffffffffffffffffffffffffffffffffffffff1673ffffffffffffffffffffffffffffffffffffffff16815260200190815260200160002081905550505b600073ffffffffffffffffffffffffffffffffffffffff168273ffffffffffffffffffffffffffffffffffffffff16036200040e57806003600082825403925050819055506200045c565b80600160008473ffffffffffffffffffffffffffffffffffffffff1673ffffffffffffffffffffffffffffffffffffffff168152602001908152602001600020600082825401925050819055505b8173ffffffffffffffffffffffffffffffffffffffff168373ffffffffffffffffffffffffffffffffffffffff167fddf252ad1be2c89b69c2b068fc378daa952ba7f163c4a11628f55a4df523b3ef83604051620004bb919062000bb9565b60405180910390a3505050565b6000604051905090565b600080fd5b600080fd5b600080fd5b600080fd5b6000601f19601f8301169050919050565b7f4e487b7100000000000000000000000000000000000000000000000000000000600052604160045260246000fd5b6200053182620004e6565b810181811067ffffffffffffffff82111715620005535762000552620004f7565b5b80604052505050565b600062000568620004c8565b905062000576828262000526565b919050565b600067ffffffffffffffff821115620005995762000598620004f7565b5b620005a482620004e6565b9050602081019050919050565b60005b83811015620005d1578082015181840152602081019050620005b4565b60008484015250505050565b6000620005f4620005ee846200057b565b6200055c565b905082815260208101848484011115620006135762000612620004e1565b5b62000620848285620005b1565b509392505050565b600082601f83011262000640576200063f620004dc565b5b815162000652848260208601620005dd565b91505092915050565b6000819050919050565b62000670816200065b565b81146200067c57600080fd5b50565b600081519050620006908162000665565b92915050565b600073ffffffffffffffffffffffffffffffffffffffff82169050919050565b6000620006c38262000696565b9050919050565b620006d581620006b6565b8114620006e157600080fd5b50565b600081519050620006f581620006ca565b92915050565b60008060008060808587031215620007185762000717620004d2565b5b600085015167ffffffffffffffff811115620007395762000738620004d7565b5b620007478782880162000628565b945050602085015167ffffffffffffffff8111156200076b576200076a620004d7565b5b620007798782880162000628565b93505060406200078c878288016200067f565b92505060606200079f87828801620006e4565b91505092959194509250565b620007b681620006b6565b82525050565b6000602082019050620007d36000830184620007ab565b92915050565b600081519050919050565b7f4e487b7100000000000000000000000000000000000000000000000000000000600052602260045260246000fd5b600060028204905060018216806200082c57607f821691505b602082108103620008425762000841620007e4565b5b50919050565b60008190508160005260206000209050919050565b60006020601f8301049050919050565b600082821b905092915050565b600060088302620008ac7fffffffffffffffffffffffffffffffffffffffffffffffffffffffffffffffff826200086d565b620008b886836200086d565b95508019841693508086168417925050509392505050565b6000819050919050565b6000620008fb620008f5620008ef846200065b565b620008d0565b6200065b565b9050919050565b6000819050919050565b6200091783620008da565b6200092f620009268262000902565b8484546200087a565b825550505050565b600090565b6200094662000937565b620009538184846200090c565b505050565b5b818110156200097b576200096f6000826200093c565b60018101905062000959565b5050565b601f821115620009ca57620009948162000848565b6200099f846200085d565b81016020851015620009af578190505b620009c7620009be856200085d565b83018262000958565b50505b505050565b600082821c905092915050565b6000620009ef60001984600802620009cf565b1980831691505092915050565b600062000a0a8383620009dc565b9150826002028217905092915050565b62000a2582620007d9565b67ffffffffffffffff81111562000a415762000a40620004f7565b5b62000a4d825462000813565b62000a5a8282856200097f565b600060209050601f83116001811462000a92576000841562000a7d578287015190505b62000a898582620009fc565b86555062000af9565b601f19841662000aa28662000848565b60005b8281101562000acc5784890151825560018201915060208501945060208101905062000aa5565b8683101562000aec578489015162000ae8601f891682620009dc565b8355505b6001600288020188555050505b505050505050565b7f4e487b7100000000000000000000000000000000000000000000000000000000600052601160045260246000fd5b600062000b3d826200065b565b915062000b4a836200065b565b925082820190508082111562000b655762000b6462000b01565b5b92915050565b62000b76816200065b565b82525050565b600060608201905062000b936000830186620007ab565b62000ba2602083018562000b6b565b62000bb1604083018462000b6b565b949350505050565b600060208201905062000bd0600083018462000b6b565b92915050565b6122618062000be66000396000f3fe60806040526004361061012e5760003560e01c80633ccfd60b116100ab578063a3c2c4621161006f578063a3c2c46214610441578063a9059cbb1461046c578063cba0e996146104a9578063dd62ed3e146104e6578063f2fde38b14610523578063fdd4e7211461054c57610189565b80633ccfd60b1461038057806370a0823114610397578063715018a6146103d45780638da5cb5b146103eb57806395d89b411461041657610189565b806318160ddd116100f257806318160ddd146102735780631e6a41ea1461029e57806321dfb5f4146102db57806323b872dd14610318578063313ce5671461035557610189565b806306fdde031461018e578063095ea7b3146101b95780630b5e8df9146101f65780630e9ed4f51461022157806313442e1e1461024a57610189565b366101895734600660008282546101459190611bc7565b925050819055507f145510a4268f342ac0c63bc581fa02839bf2df99b7cdcec547f1efad649b0ca93460065460405161017f929190611c0a565b60405180910390a1005b600080fd5b34801561019a57600080fd5b506101a3610575565b6040516101b09190611cc3565b60405180910390f35b3480156101c557600080fd5b506101e060048036038101906101db9190611d74565b610607565b6040516101ed9190611dcf565b60405180910390f35b34801561020257600080fd5b5061020b61062a565b6040516102189190611df9565b60405180910390f35b34801561022d57600080fd5b5061024860048036038101906102439190611e40565b610650565b005b34801561025657600080fd5b50610271600480360381019061026c9190611e80565b6108cd565b005b34801561027f57600080fd5b50610288610a8b565b6040516102959190611ead565b60405180910390f35b3480156102aa57600080fd5b506102c560048036038101906102c09190611e80565b610a95565b6040516102d29190611ead565b60405180910390f35b3480156102e757600080fd5b5061030260048036038101906102fd9190611e80565b610aad565b60405161030f9190611dcf565b60405180910390f35b34801561032457600080fd5b5061033f600480360381019061033a9190611ec8565b610acd565b60405161034c9190611dcf565b60405180910390f35b34801561036157600080fd5b5061036a610b81565b6040516103779190611f37565b60405180910390f35b34801561038c57600080fd5b50610395610b8a565b005b3480156103a357600080fd5b506103be60048036038101906103b99190611e80565b610d1e565b6040516103cb9190611ead565b60405180910390f35b3480156103e057600080fd5b506103e9610d67565b005b3480156103f757600080fd5b50610400610d7b565b60405161040d9190611df9565b60405180910390f35b34801561042257600080fd5b5061042b610da4565b6040516104389190611cc3565b60405180910390f35b34801561044d57600080fd5b50610456610e36565b6040516104639190611ead565b60405180910390f35b34801561047857600080fd5b50610493600480360381019061048e9190611d74565b610e3c565b6040516104a09190611dcf565b60405180910390f35b3480156104b557600080fd5b506104d060048036038101906104cb9190611e80565b610eee565b6040516104dd9190611dcf565b60405180910390f35b3480156104f257600080fd5b5061050d60048036038101906105089190611f52565b610f44565b60405161051a9190611ead565b60405180910390f35b34801561052f57600080fd5b5061054a60048036038101906105459190611e80565b610fcb565b005b34801561055857600080fd5b50610573600480360381019061056e9190611e80565b611051565b005b60606004805461058490611fc1565b80601f01602080910402602001604051908101604052809291908181526020018280546105b090611fc1565b80156105fd5780601f106105d2576101008083540402835291602001916105fd565b820191906000526020600020905b8154815290600101906020018083116105e057829003601f168201915b5050505050905090565b600080610612611120565b905061061f818585611128565b600191505092915050565b600760009054906101000a900473ffffffffffffffffffffffffffffffffffffffff1681565b61065861113a565b8080156106ae5750600960008373ffffffffffffffffffffffffffffffffffffffff1673ffffffffffffffffffffffffffffffffffffffff16815260200190815260200160002060009054906101000a900460ff165b156106f057816040517f6d043f900000000000000000000000000000000000000000000000000000000081526004016106e79190611df9565b60405180910390fd5b801580156107485750600960008373ffffffffffffffffffffffffffffffffffffffff1673ffffffffffffffffffffffffffffffffffffffff16815260200190815260200160002060009054906101000a900460ff16155b1561078a57816040517fc25819650000000000000000000000000000000000000000000000000000000081526004016107819190611df9565b60405180910390fd5b610792610d7b565b73ffffffffffffffffffffffffffffffffffffffff168273ffffffffffffffffffffffffffffffffffffffff1614806107f75750600073ffffffffffffffffffffffffffffffffffffffff168273ffffffffffffffffffffffffffffffffffffffff16145b1561083957816040517fcef660670000000000000000000000000000000000000000000000000000000081526004016108309190611df9565b60405180910390fd5b80600960008473ffffffffffffffffffffffffffffffffffffffff1673ffffffffffffffffffffffffffffffffffffffff16815260200190815260200160002060006101000a81548160ff0219169083151502179055507ffad419410409761d9fb26fe142917575b896e39eeffd4a4eed81318b090cae6482826040516108c1929190611ff2565b60405180910390a15050565b6108d561113a565b600960008273ffffffffffffffffffffffffffffffffffffffff1673ffffffffffffffffffffffffffffffffffffffff16815260200190815260200160002060009054906101000a900460ff1661096357806040517f9cd44b7f00000000000000000000000000000000000000000000000000000000815260040161095a9190611df9565b60405180910390fd5b600061096e826111c1565b9050610978610a8b565b60065461098484610d1e565b61098e919061201b565b610998919061208c565b600860008473ffffffffffffffffffffffffffffffffffffffff1673ffffffffffffffffffffffffffffffffffffffff168152602001908152602001600020819055506000811115610a4e57600760009054906101000a900473ffffffffffffffffffffffffffffffffffffffff1673ffffffffffffffffffffffffffffffffffffffff166108fc829081150290604051600060405180830381858888f19350505050158015610a4c573d6000803e3d6000fd5b505b7f87d5f4772963d1f9b76047158b4ae97c420a1b3bff2a746c828beffd9e7c3e268282604051610a7f9291906120bd565b60405180910390a15050565b6000600354905090565b60086020528060005260406000206000915090505481565b60096020528060005260406000206000915054906101000a900460ff1681565b600081610ad985610d1e565b1015610b1a576040517f08c379a0000000000000000000000000000000000000000000000000000000008152600401610b1190612132565b60405180910390fd5b600082610b2686610d1e565b610b309190612152565b9050600083610b3e86610d1e565b610b489190611bc7565b9050600080610b5988888686611244565b91509150610b698883898461132c565b610b748888886114f1565b9450505050509392505050565b60006012905090565b600960003373ffffffffffffffffffffffffffffffffffffffff1673ffffffffffffffffffffffffffffffffffffffff16815260200190815260200160002060009054906101000a900460ff1615610c1957336040517f2fe778c9000000000000000000000000000000000000000000000000000000008152600401610c109190611df9565b60405180910390fd5b6000610c24336111c1565b9050610c2e610a8b565b600654610c3a33610d1e565b610c44919061201b565b610c4e919061208c565b600860003373ffffffffffffffffffffffffffffffffffffffff1673ffffffffffffffffffffffffffffffffffffffff168152602001908152602001600020819055506000811115610ce2573373ffffffffffffffffffffffffffffffffffffffff166108fc829081150290604051600060405180830381858888f19350505050158015610ce0573d6000803e3d6000fd5b505b7f87d5f4772963d1f9b76047158b4ae97c420a1b3bff2a746c828beffd9e7c3e263382604051610d139291906120bd565b60405180910390a150565b6000600160008373ffffffffffffffffffffffffffffffffffffffff1673ffffffffffffffffffffffffffffffffffffffff168152602001908152602001600020549050919050565b610d6f61113a565b610d796000611520565b565b60008060009054906101000a900473ffffffffffffffffffffffffffffffffffffffff16905090565b606060058054610db390611fc1565b80601f0160208091040260200160405190810160405280929190818152602001828054610ddf90611fc1565b8015610e2c5780601f10610e0157610100808354040283529160200191610e2c565b820191906000526020600020905b815481529060010190602001808311610e0f57829003601f168201915b5050505050905090565b60065481565b600081610e4833610d1e565b1015610e89576040517f08c379a0000000000000000000000000000000000000000000000000000000008152600401610e8090612132565b60405180910390fd5b600082610e9533610d1e565b610e9f9190612152565b9050600083610ead86610d1e565b610eb79190611bc7565b9050600080610ec833888686611244565b91509150610ed83383898461132c565b610ee287876115e4565b94505050505092915050565b6000600960008373ffffffffffffffffffffffffffffffffffffffff1673ffffffffffffffffffffffffffffffffffffffff16815260200190815260200160002060009054906101000a900460ff169050919050565b6000600260008473ffffffffffffffffffffffffffffffffffffffff1673ffffffffffffffffffffffffffffffffffffffff16815260200190815260200160002060008373ffffffffffffffffffffffffffffffffffffffff1673ffffffffffffffffffffffffffffffffffffffff16815260200190815260200160002054905092915050565b610fd361113a565b600073ffffffffffffffffffffffffffffffffffffffff168173ffffffffffffffffffffffffffffffffffffffff16036110455760006040517f1e4fbdf700000000000000000000000000000000000000000000000000000000815260040161103c9190611df9565b60405180910390fd5b61104e81611520565b50565b61105961113a565b6000600760009054906101000a900473ffffffffffffffffffffffffffffffffffffffff16905081600760006101000a81548173ffffffffffffffffffffffffffffffffffffffff021916908373ffffffffffffffffffffffffffffffffffffffff1602179055507f3d7ce3bc0f9e87d73ce534f80d2896194eb2103379b39b6fd3b9662d6bf2467781600760009054906101000a900473ffffffffffffffffffffffffffffffffffffffff16604051611114929190612186565b60405180910390a15050565b600033905090565b6111358383836001611607565b505050565b611142611120565b73ffffffffffffffffffffffffffffffffffffffff16611160610d7b565b73ffffffffffffffffffffffffffffffffffffffff16146111bf57611183611120565b6040517f118cdaa70000000000000000000000000000000000000000000000000000000081526004016111b69190611df9565b60405180910390fd5b565b6000806111cc610a8b565b6006546111d885610d1e565b6111e2919061201b565b6111ec919061208c565b9050600860008473ffffffffffffffffffffffffffffffffffffffff1673ffffffffffffffffffffffffffffffffffffffff16815260200190815260200160002054816112399190612152565b905080915050919050565b600080611250866111c1565b915061125b856111c1565b9050611265610a8b565b60065485611273919061201b565b61127d919061208c565b600860008873ffffffffffffffffffffffffffffffffffffffff1673ffffffffffffffffffffffffffffffffffffffff168152602001908152602001600020819055506112c8610a8b565b600654846112d6919061201b565b6112e0919061208c565b600860008773ffffffffffffffffffffffffffffffffffffffff1673ffffffffffffffffffffffffffffffffffffffff1681526020019081526020016000208190555094509492505050565b600084905061133a81610eee565b8061137057503073ffffffffffffffffffffffffffffffffffffffff168173ffffffffffffffffffffffffffffffffffffffff16145b1561139b57600760009054906101000a900473ffffffffffffffffffffffffffffffffffffffff1690505b60008390506113a981610eee565b806113df57503073ffffffffffffffffffffffffffffffffffffffff168173ffffffffffffffffffffffffffffffffffffffff16145b1561140a57600760009054906101000a900473ffffffffffffffffffffffffffffffffffffffff1690505b600085111561145b578173ffffffffffffffffffffffffffffffffffffffff166108fc869081150290604051600060405180830381858888f19350505050158015611459573d6000803e3d6000fd5b505b60008311156114ac578073ffffffffffffffffffffffffffffffffffffffff166108fc849081150290604051600060405180830381858888f193505050501580156114aa573d6000803e3d6000fd5b505b7f32b7f9b68a5157772b72a286a96849fae9c6d8e45d8f412ce7a4ec890a8f0c83828287866040516114e194939291906121af565b60405180910390a1505050505050565b6000806114fc611120565b90506115098582856117de565b611514858585611872565b60019150509392505050565b60008060009054906101000a900473ffffffffffffffffffffffffffffffffffffffff169050816000806101000a81548173ffffffffffffffffffffffffffffffffffffffff021916908373ffffffffffffffffffffffffffffffffffffffff1602179055508173ffffffffffffffffffffffffffffffffffffffff168173ffffffffffffffffffffffffffffffffffffffff167f8be0079c531659141344cd1fd0a4f28419497f9722a3daafe3b4186f6b6457e060405160405180910390a35050565b6000806115ef611120565b90506115fc818585611872565b600191505092915050565b600073ffffffffffffffffffffffffffffffffffffffff168473ffffffffffffffffffffffffffffffffffffffff16036116795760006040517fe602df050000000000000000000000000000000000000000000000000000000081526004016116709190611df9565b60405180910390fd5b600073ffffffffffffffffffffffffffffffffffffffff168373ffffffffffffffffffffffffffffffffffffffff16036116eb5760006040517f94280d620000000000000000000000000000000000000000000000000000000081526004016116e29190611df9565b60405180910390fd5b81600260008673ffffffffffffffffffffffffffffffffffffffff1673ffffffffffffffffffffffffffffffffffffffff16815260200190815260200160002060008573ffffffffffffffffffffffffffffffffffffffff1673ffffffffffffffffffffffffffffffffffffffff1681526020019081526020016000208190555080156117d8578273ffffffffffffffffffffffffffffffffffffffff168473ffffffffffffffffffffffffffffffffffffffff167f8c5be1e5ebec7d5bd14f71427d1e84f3dd0314c0f7b2291e5b200ac8c7c3b925846040516117cf9190611ead565b60405180910390a35b50505050565b60006117ea8484610f44565b90507fffffffffffffffffffffffffffffffffffffffffffffffffffffffffffffffff811461186c578181101561185c578281836040517ffb8f41b2000000000000000000000000000000000000000000000000000000008152600401611853939291906121f4565b60405180910390fd5b61186b84848484036000611607565b5b50505050565b600073ffffffffffffffffffffffffffffffffffffffff168373ffffffffffffffffffffffffffffffffffffffff16036118e45760006040517f96c6fd1e0000000000000000000000000000000000000000000000000000000081526004016118db9190611df9565b60405180910390fd5b600073ffffffffffffffffffffffffffffffffffffffff168273ffffffffffffffffffffffffffffffffffffffff16036119565760006040517fec442f0500000000000000000000000000000000000000000000000000000000815260040161194d9190611df9565b60405180910390fd5b611961838383611966565b505050565b600073ffffffffffffffffffffffffffffffffffffffff168373ffffffffffffffffffffffffffffffffffffffff16036119b85780600360008282546119ac9190611bc7565b92505081905550611a8d565b6000600160008573ffffffffffffffffffffffffffffffffffffffff1673ffffffffffffffffffffffffffffffffffffffff16815260200190815260200160002054905081811015611a45578381836040517fe450d38c000000000000000000000000000000000000000000000000000000008152600401611a3c939291906121f4565b60405180910390fd5b818103600160008673ffffffffffffffffffffffffffffffffffffffff1673ffffffffffffffffffffffffffffffffffffffff16815260200190815260200160002081905550505b600073ffffffffffffffffffffffffffffffffffffffff168273ffffffffffffffffffffffffffffffffffffffff1603611ad65780600360008282540392505081905550611b24565b80600160008473ffffffffffffffffffffffffffffffffffffffff1673ffffffffffffffffffffffffffffffffffffffff168152602001908152602001600020600082825401925050819055505b8173ffffffffffffffffffffffffffffffffffffffff168373ffffffffffffffffffffffffffffffffffffffff167fddf252ad1be2c89b69c2b068fc378daa952ba7f163c4a11628f55a4df523b3ef83604051611b819190611ead565b60405180910390a3505050565b6000819050919050565b7f4e487b7100000000000000000000000000000000000000000000000000000000600052601160045260246000fd5b6000611bd282611b8e565b9150611bdd83611b8e565b9250828201905080821115611bf557611bf4611b98565b5b92915050565b611c0481611b8e565b82525050565b6000604082019050611c1f6000830185611bfb565b611c2c6020830184611bfb565b9392505050565b600081519050919050565b600082825260208201905092915050565b60005b83811015611c6d578082015181840152602081019050611c52565b60008484015250505050565b6000601f19601f8301169050919050565b6000611c9582611c33565b611c9f8185611c3e565b9350611caf818560208601611c4f565b611cb881611c79565b840191505092915050565b60006020820190508181036000830152611cdd8184611c8a565b905092915050565b600080fd5b600073ffffffffffffffffffffffffffffffffffffffff82169050919050565b6000611d1582611cea565b9050919050565b611d2581611d0a565b8114611d3057600080fd5b50565b600081359050611d4281611d1c565b92915050565b611d5181611b8e565b8114611d5c57600080fd5b50565b600081359050611d6e81611d48565b92915050565b60008060408385031215611d8b57611d8a611ce5565b5b6000611d9985828601611d33565b9250506020611daa85828601611d5f565b9150509250929050565b60008115159050919050565b611dc981611db4565b82525050565b6000602082019050611de46000830184611dc0565b92915050565b611df381611d0a565b82525050565b6000602082019050611e0e6000830184611dea565b92915050565b611e1d81611db4565b8114611e2857600080fd5b50565b600081359050611e3a81611e14565b92915050565b60008060408385031215611e5757611e56611ce5565b5b6000611e6585828601611d33565b9250506020611e7685828601611e2b565b9150509250929050565b600060208284031215611e9657611e95611ce5565b5b6000611ea484828501611d33565b91505092915050565b6000602082019050611ec26000830184611bfb565b92915050565b600080600060608486031215611ee157611ee0611ce5565b5b6000611eef86828701611d33565b9350506020611f0086828701611d33565b9250506040611f1186828701611d5f565b9150509250925092565b600060ff82169050919050565b611f3181611f1b565b82525050565b6000602082019050611f4c6000830184611f28565b92915050565b60008060408385031215611f6957611f68611ce5565b5b6000611f7785828601611d33565b9250506020611f8885828601611d33565b9150509250929050565b7f4e487b7100000000000000000000000000000000000000000000000000000000600052602260045260246000fd5b60006002820490506001821680611fd957607f821691505b602082108103611fec57611feb611f92565b5b50919050565b60006040820190506120076000830185611dea565b6120146020830184611dc0565b9392505050565b600061202682611b8e565b915061203183611b8e565b925082820261203f81611b8e565b9150828204841483151761205657612055611b98565b5b5092915050565b7f4e487b7100000000000000000000000000000000000000000000000000000000600052601260045260246000fd5b600061209782611b8e565b91506120a283611b8e565b9250826120b2576120b161205d565b5b828204905092915050565b60006040820190506120d26000830185611dea565b6120df6020830184611bfb565b9392505050565b7f416d6f756e7420657863656564732062616c616e636500000000000000000000600082015250565b600061211c601683611c3e565b9150612127826120e6565b602082019050919050565b6000602082019050818103600083015261214b8161210f565b9050919050565b600061215d82611b8e565b915061216883611b8e565b92508282039050818111156121805761217f611b98565b5b92915050565b600060408201905061219b6000830185611dea565b6121a86020830184611dea565b9392505050565b60006080820190506121c46000830187611dea565b6121d16020830186611dea565b6121de6040830185611bfb565b6121eb6060830184611bfb565b95945050505050565b60006060820190506122096000830186611dea565b6122166020830185611bfb565b6122236040830184611bfb565b94935050505056fea26469706673582212208389918a853aa03047c6178b242268a0bd5fb056fd6a306c79ae8cf2b75d8bee64736f6c63430008140033",
  "devdoc": {
    "errors": {
      "ERC20InsufficientAllowance(address,uint256,uint256)": [
        {
          "details": "Indicates a failure with the `spender`s `allowance`. Used in transfers.",
          "params": {
            "allowance": "Amount of tokens a `spender` is allowed to operate with.",
            "needed": "Minimum amount required to perform a transfer.",
            "spender": "Address that may be allowed to operate on tokens without being their owner."
          }
        }
      ],
      "ERC20InsufficientBalance(address,uint256,uint256)": [
        {
          "details": "Indicates an error related to the current `balance` of a `sender`. Used in transfers.",
          "params": {
            "balance": "Current balance for the interacting account.",
            "needed": "Minimum amount required to perform a transfer.",
            "sender": "Address whose tokens are being transferred."
          }
        }
      ],
      "ERC20InvalidApprover(address)": [
        {
          "details": "Indicates a failure with the `approver` of a token to be approved. Used in approvals.",
          "params": {
            "approver": "Address initiating an approval operation."
          }
        }
      ],
      "ERC20InvalidReceiver(address)": [
        {
          "details": "Indicates a failure with the token `receiver`. Used in transfers.",
          "params": {
            "receiver": "Address to which tokens are being transferred."
          }
        }
      ],
      "ERC20InvalidSender(address)": [
        {
          "details": "Indicates a failure with the token `sender`. Used in transfers.",
          "params": {
            "sender": "Address whose tokens are being transferred."
          }
        }
      ],
      "ERC20InvalidSpender(address)": [
        {
          "details": "Indicates a failure with the `spender` to be approved. Used in approvals.",
          "params": {
            "spender": "Address that may be allowed to operate on tokens without being their owner."
          }
        }
      ],
      "OwnableInvalidOwner(address)": [
        {
          "details": "The owner is not a valid owner account. (eg. `address(0)`)"
        }
      ],
      "OwnableUnauthorizedAccount(address)": [
        {
          "details": "The caller account is not authorized to perform an operation."
        }
      ]
    },
    "events": {
      "Approval(address,address,uint256)": {
        "details": "Emitted when the allowance of a `spender` for an `owner` is set by a call to {approve}. `value` is the new allowance."
      },
      "Transfer(address,address,uint256)": {
        "details": "Emitted when `value` tokens are moved from one account (`from`) to another (`to`). Note that `value` may be zero."
      }
    },
    "kind": "dev",
    "methods": {
      "allowance(address,address)": {
        "details": "See {IERC20-allowance}."
      },
      "approve(address,uint256)": {
        "details": "See {IERC20-approve}. NOTE: If `value` is the maximum `uint256`, the allowance is not updated on `transferFrom`. This is semantically equivalent to an infinite approval. Requirements: - `spender` cannot be the zero address."
      },
      "balanceOf(address)": {
        "details": "See {IERC20-balanceOf}."
      },
      "changeDefaultRecipient(address)": {
        "details": "Change the default recipient for payments"
      },
      "constructor": {
        "details": "Constructor",
        "params": {
          "_defaultRecipient": "Default recipient for payments (for excluded accounts)",
          "initialSupply": "Initial supply",
          "name_": "Token name",
          "symbol_": "Token symbol"
        }
      },
      "decimals()": {
        "details": "Returns the number of decimals used to get its user representation. For example, if `decimals` equals `2`, a balance of `505` tokens should be displayed to a user as `5.05` (`505 / 10 ** 2`). Tokens usually opt for a value of 18, imitating the relationship between Ether and Wei. This is the default value returned by this function, unless it's overridden. NOTE: This information is only used for _display_ purposes: it in no way affects any of the arithmetic of the contract, including {IERC20-balanceOf} and {IERC20-transfer}."
      },
      "isExcluded(address)": {
        "details": "Check if an address is excluded from the payment system",
        "params": {
          "account": "Address to check"
        },
        "returns": {
          "_0": "True if the address is excluded, false otherwise"
        }
      },
      "name()": {
        "details": "Returns the name of the token."
      },
      "owner()": {
        "details": "Returns the address of the current owner."
      },
      "renounceOwnership()": {
        "details": "Leaves the contract without owner. It will not be possible to call `onlyOwner` functions. Can only be called by the current owner. NOTE: Renouncing ownership will leave the contract without an owner, thereby disabling any functionality that is only available to the owner."
      },
      "symbol()": {
        "details": "Returns the symbol of the token, usually a shorter version of the name."
      },
      "totalSupply()": {
        "details": "See {IERC20-totalSupply}."
      },
      "transfer(address,uint256)": {
        "details": "standard ERC20 transfer functionTransfer tokens from the sender account to another account",
        "params": {
          "amount": "Amount of tokens to transfer",
          "to": "Account to transfer tokens to"
        },
        "returns": {
          "_0": "True if the transfer was successful, false otherwise"
        }
      },
      "transferFrom(address,address,uint256)": {
        "details": "standard ERC20 transferFrom functionTransfer tokens from one account to another",
        "params": {
          "amount": "Amount of tokens to transfer",
          "from": "Account to transfer tokens from",
          "to": "Account to transfer tokens to"
        },
        "returns": {
          "_0": "True if the transfer was successful, false otherwise"
        }
      },
      "transferOwnership(address)": {
        "details": "Transfers ownership of the contract to a new account (`newOwner`). Can only be called by the current owner."
      },
      "updateExclusion(address,bool)": {
        "details": "Exclude or include an address from the payment system",
        "params": {
          "_excludedAddress": "Address to exclude or include",
          "_isExcluded": "True to exclude, false to include"
        }
      },
      "withdraw()": {
        "details": "Withdraw the payments for an account"
      },
      "withdrawToDefaultRecipient(address)": {
        "details": "Withdraw the payments for an excluded ccount to the default recipient"
      }
    },
    "version": 1
  },
  "userdoc": {
    "kind": "user",
    "methods": {
      "changeDefaultRecipient(address)": {
        "notice": "The default recipient is used to reveive payments from excluded accountsThe default recipient can be any address, but it is recommended to use a contract that can handle the paymentsMust be called by the contract owner"
      },
      "transfer(address,uint256)": {
        "notice": "This function is overriden to keep track of the payments"
      },
      "transferFrom(address,address,uint256)": {
        "notice": "This function is overriden to keep track of the payments"
      },
      "updateExclusion(address,bool)": {
        "notice": "The contract owner can exclude or include an address from the payment systemAn excluded address will not receive payments but its tokens will not be bloqued or lost"
      },
      "withdraw()": {
        "notice": "The account will receive the payments that have not been withdrawn yetThe account must not be excludedThe account must have a balance"
      },
      "withdrawToDefaultRecipient(address)": {
        "notice": "The default will receive the payments that have not been withdrawn yet"
      }
    },
    "notice": "CONTRACT util STO Utility to take track of earnings",
    "version": 1
  },
  "storageLayout": {
    "storage": [
      {
        "astId": 8,
        "contract": "contracts/ST_crypt.sol:ST_crypt",
        "label": "_owner",
        "offset": 0,
        "slot": "0",
        "type": "t_address"
      },
      {
        "astId": 307,
        "contract": "contracts/ST_crypt.sol:ST_crypt",
        "label": "_balances",
        "offset": 0,
        "slot": "1",
        "type": "t_mapping(t_address,t_uint256)"
      },
      {
        "astId": 313,
        "contract": "contracts/ST_crypt.sol:ST_crypt",
        "label": "_allowances",
        "offset": 0,
        "slot": "2",
        "type": "t_mapping(t_address,t_mapping(t_address,t_uint256))"
      },
      {
        "astId": 315,
        "contract": "contracts/ST_crypt.sol:ST_crypt",
        "label": "_totalSupply",
        "offset": 0,
        "slot": "3",
        "type": "t_uint256"
      },
      {
        "astId": 317,
        "contract": "contracts/ST_crypt.sol:ST_crypt",
        "label": "_name",
        "offset": 0,
        "slot": "4",
        "type": "t_string_storage"
      },
      {
        "astId": 319,
        "contract": "contracts/ST_crypt.sol:ST_crypt",
        "label": "_symbol",
        "offset": 0,
        "slot": "5",
        "type": "t_string_storage"
      },
      {
        "astId": 944,
        "contract": "contracts/ST_crypt.sol:ST_crypt",
        "label": "totalReceived",
        "offset": 0,
        "slot": "6",
        "type": "t_uint256"
      },
      {
        "astId": 946,
        "contract": "contracts/ST_crypt.sol:ST_crypt",
        "label": "defaultRecipient",
        "offset": 0,
        "slot": "7",
        "type": "t_address"
      },
      {
        "astId": 950,
        "contract": "contracts/ST_crypt.sol:ST_crypt",
        "label": "spent",
        "offset": 0,
        "slot": "8",
        "type": "t_mapping(t_address,t_uint256)"
      },
      {
        "astId": 954,
        "contract": "contracts/ST_crypt.sol:ST_crypt",
        "label": "exclusions",
        "offset": 0,
        "slot": "9",
        "type": "t_mapping(t_address,t_bool)"
      }
    ],
    "types": {
      "t_address": {
        "encoding": "inplace",
        "label": "address",
        "numberOfBytes": "20"
      },
      "t_bool": {
        "encoding": "inplace",
        "label": "bool",
        "numberOfBytes": "1"
      },
      "t_mapping(t_address,t_bool)": {
        "encoding": "mapping",
        "key": "t_address",
        "label": "mapping(address => bool)",
        "numberOfBytes": "32",
        "value": "t_bool"
      },
      "t_mapping(t_address,t_mapping(t_address,t_uint256))": {
        "encoding": "mapping",
        "key": "t_address",
        "label": "mapping(address => mapping(address => uint256))",
        "numberOfBytes": "32",
        "value": "t_mapping(t_address,t_uint256)"
      },
      "t_mapping(t_address,t_uint256)": {
        "encoding": "mapping",
        "key": "t_address",
        "label": "mapping(address => uint256)",
        "numberOfBytes": "32",
        "value": "t_uint256"
      },
      "t_string_storage": {
        "encoding": "bytes",
        "label": "string",
        "numberOfBytes": "32"
      },
      "t_uint256": {
        "encoding": "inplace",
        "label": "uint256",
        "numberOfBytes": "32"
      }
    }
  }
}